:100000000C94B3000C94D4000C94D4000C94D40041
:100010000C94D4000C946A0A0C94870A0C94D400B3
:100020000C94D4000C94D4000C94D4000C94D40000
:100030000C94D4000C94D4000C94D4000C94D400F0
:100040000C94D4000C94D4000C94D4000C94D400E0
:100050000C94D4000C94D4000C94D4000C94D400D0
:100060000C94D4000C94030F0C94D4000C94D40082
:100070000C94D4000C94D4000C94D4000C94D400B0
:100080000C94D4000C94D4000C94D4000C94D400A0
:100090000C94D4000C94D4000C94D4000C94D40090
:1000A0000C94D4000C94D4000C94D4000C94D40080
:1000B0000C94D4000C94D4000C94D4000C94D40070
:1000C0000C94D4000C94D4000C94D4000C94D40060
:1000D0000C94D4000C94D4000C94D4000C94D40050
:1000E0000C94D40007634236B79BD8A71A396856D8
:1000F00018AEBAAB558C1D3CB7CC5763BD6DEDFD4A
:10010000753EF6177231BF000000803F0800000006
:10011000BE922449123EABAAAA2ABECDCCCC4C3EFC
:1001200000000080BEABAAAAAA3E00000000BF00EB
:100130000000803F0000000000084178D3BB4387E7
:10014000D1133D190E3CC3BD4282AD2B3E68EC82FB
:1001500076BED98FE1A93E4C80EFFFBE01C4FF7F80
:100160003F000000000011241FBECFEFD1E2DEBF30
:10017000CDBF00E00CBF13E0A0E0B2E0E4E2F9E3A1
:1001800000E00BBF02C007900D92AC30B107D9F769
:1001900013E0ACE0B3E001C01D92A832B107E1F773
:1001A0000E9463120C94901C0C9400000F931F93F8
:1001B000DF93CF93CDB7DEB7C057D0400FB6F894DA
:1001C000DEBF0FBECDBFFE01E359FF4F80E090E0E0
:1001D000A0E8BFE380839183A283B3838E01075994
:1001E0001F4FFE01E359FF4F60817181828193812E
:1001F0002DEC3CEC4CE255E40E946514DC01CB0193
:10020000F80180839183A283B383FE01E759FF4FF6
:10021000608171818281938120E030E040E85FE37A
:100220000E946B16882344F4FE01E959FF4F81E0D8
:1002300090E09183808364C0FE01E759FF4F6081A5
:1002400071818281938120E03FEF4FE757E40E9464
:100250000B1618160CF043C0FE01E359FF4F6081E6
:1002600071818281938120E030E040E251E40E947C
:100270006514DC01CB018E0109591F4FBC01CD0172
:100280000E948F12DC01CB01F801918380831FC093
:10029000FE01EB59FF4F84E191E091838083FE01E1
:1002A000EB59FF4F808191810197F1F7FE01EB59E6
:1002B000FF4F91838083DE01A959BF4FFE01E959A9
:1002C000FF4F80819181019711969C938E93FE013F
:1002D000E959FF4F808191810097D1F627C08E01A7
:1002E00009591F4FFE01E759FF4F608171818281DB
:1002F00093810E948F12DC01CB01F80191838083EE
:10030000DE01AD59BF4FFE01E959FF4F8081918158
:100310008D939C93FE01ED59FF4F80819181019750
:10032000F1F7FE01ED59FF4F91838083A8E2B0E021
:10033000E8E2F0E080818E7F8C93A8E2B0E0E8E212
:10034000F0E080818D7F8C93E8E2F0E080E38083B1
:10035000A8E2B0E0E8E2F0E0808184608C93FE01E6
:10036000E15AFF4F80E090E0A0EAB0E480839183FF
:10037000A283B3838E01055A1F4FFE01E15AFF4F3E
:1003800060817181828193812DEC3CEC4CE255E4DB
:100390000E946514DC01CB01F80180839183A28364
:1003A000B383FE01E55AFF4F6081718182819381A1
:1003B00020E030E040E85FE30E946B16882344F4BD
:1003C000FE01E75AFF4F81E090E09183808364C093
:1003D000FE01E55AFF4F608171818281938120E0A7
:1003E0003FEF4FE757E40E940B1618160CF043C07E
:1003F000FE01E15AFF4F608171818281938120E08B
:1004000030E040E251E40E946514DC01CB018E0132
:10041000075A1F4FBC01CD010E948F12DC01CB0196
:10042000F801918380831FC0FE01E95AFF4F84E1E8
:1004300091E091838083FE01E95AFF4F8081918191
:100440000197F1F7FE01E95AFF4F91838083DE01A6
:10045000A75ABF4FFE01E75AFF4F80819181019754
:1004600011969C938E93FE01E75AFF4F80819181F4
:100470000097D1F627C08E01075A1F4FFE01E55A9B
:10048000FF4F60817181828193810E948F12DC0114
:10049000CB01F80191838083DE01AB5ABF4FFE018F
:1004A000E75AFF4F808191818D939C93FE01EB5A17
:1004B000FF4F808191810197F1F7FE01EB5AFF4FC9
:1004C00091838083A8E2B0E0E8E2F0E080818B7F56
:1004D0008C93FE01EF5AFF4F80E090E0A0E8BFE36D
:1004E00080839183A283B3838E01035B1F4FFE0140
:1004F000EF5AFF4F60817181828193812DEC3CEC3A
:100500004CE255E40E946514DC01CB01F8018083C4
:100510009183A283B383FE01E35BFF4F608171810E
:100520008281938120E030E040E85FE30E946B1617
:10053000882344F4FE01E55BFF4F81E090E0918366
:10054000808364C0FE01E35BFF4F60817181828123
:10055000938120E03FEF4FE757E40E940B161816F7
:100560000CF043C0FE01EF5AFF4F60817181828120
:10057000938120E030E040E251E40E946514DC0108
:10058000CB018E01055B1F4FBC01CD010E948F1274
:10059000DC01CB01F801918380831FC0FE01E75B82
:1005A000FF4F84E191E091838083FE01E75BFF4F81
:1005B000808191810197F1F7FE01E75BFF4F918305
:1005C0008083DE01A55BBF4FFE01E55BFF4F8081AD
:1005D0009181019711969C938E93FE01E55BFF4FED
:1005E000808191810097D1F627C08E01055B1F4F56
:1005F000FE01E35BFF4F60817181828193810E94E4
:100600008F12DC01CB01F80191838083DE01A95BAD
:10061000BF4FFE01E55BFF4F808191818D939C93DD
:10062000FE01E95BFF4F808191810197F1F7FE01A7
:10063000E95BFF4F91838083A8E2B0E0E8E2F0E05D
:1006400080818E7F8C93A8E2B0E0E8E2F0E08081C8
:100650008D7F8C93E8E2F0E080E38083A8E2B0E055
:10066000E8E2F0E0808184608C93FE01ED5BFF4F57
:1006700080E090E0A0EAB0E480839183A283B3831A
:100680008E01015C1F4FFE01ED5BFF4F60817181A8
:10069000828193812DEC3CEC4CE255E40E94651480
:1006A000DC01CB01F80180839183A283B383FE0137
:1006B000FF96608171818281938120E030E040E883
:1006C0005FE30E946B1688232CF481E090E09EAFDC
:1006D0008DAF46C0FE01FF9660817181828193815A
:1006E00020E03FEF4FE757E40E940B16181664F521
:1006F000FE01ED5BFF4F608171818281938120E07B
:1007000030E040E251E40E946514DC01CB01BC0101
:10071000CD010E948F12DC01CB019EAF8DAF0FC0C7
:1007200084E191E09CAF8BAF8BAD9CAD0197F1F76D
:100730009CAF8BAF8DAD9EAD01979EAF8DAF8DAD54
:100740009EAD009769F716C0FE01FF96608171812A
:10075000828193810E948F12DC01CB019EAF8DAF0D
:100760008DAD9EAD9AAF89AF89AD9AAD0197F1F786
:100770009AAF89AFA8E2B0E0E8E2F0E080818B7F39
:100780008C9380E090E0A0E8BFE38DAB9EABAFAB75
:10079000B8AF6DA97EA98FA998AD2DEC3CEC4CE2C9
:1007A00055E40E946514DC01CB0189AB9AABABAB7D
:1007B000BCAB69A97AA98BA99CA920E030E040E8EC
:1007C0005FE30E946B1688232CF481E090E098ABE5
:1007D0008FA73FC069A97AA98BA99CA920E03FEF08
:1007E0004FE757E40E940B1618164CF56DA97EA929
:1007F0008FA998AD20E030E040E251E40E946514FA
:10080000DC01CB01BC01CD010E948F12DC01CB01C8
:1008100098AB8FA70FC084E191E09EA78DA78DA50F
:100820009EA50197F1F79EA78DA78FA598A901977F
:1008300098AB8FA78FA598A9009769F714C069A9ED
:100840007AA98BA99CA90E948F12DC01CB0198ABDD
:100850008FA78FA598A99CA78BA78BA59CA501976F
:10086000F1F79CA78BA7A8E2B0E0E8E2F0E0808176
:100870008E7F8C93A8E2B0E0E8E2F0E080818D7F8B
:100880008C93E8E2F0E080E38083A8E2B0E0E8E265
:10089000F0E0808184608C9380E090E0A0EAB0E496
:1008A0008FA398A7A9A7BAA76FA178A589A59AA58C
:1008B0002DEC3CEC4CE255E40E946514DC01CB01CC
:1008C0008BA39CA3ADA3BEA36BA17CA18DA19EA174
:1008D00020E030E040E85FE30E946B1688232CF4B0
:1008E00081E090E09AA389A33FC06BA17CA18DA178
:1008F0009EA120E03FEF4FE757E40E940B16181629
:100900004CF56FA178A589A59AA520E030E040E2DA
:1009100051E40E946514DC01CB01BC01CD010E94B1
:100920008F12DC01CB019AA389A30FC084E191E06F
:1009300098A38F8F8F8D98A10197F1F798A38F8F30
:1009400089A19AA101979AA389A389A19AA1009745
:1009500069F714C06BA17CA18DA19EA10E948F128A
:10096000DC01CB019AA389A389A19AA19E8F8D8FC7
:100970008D8D9E8D0197F1F79E8F8D8FA8E2B0E04F
:10098000E8E2F0E080818B7F8C9380E090E0A0E84B
:10099000BFE3898F9A8FAB8FBC8F698D7A8D8B8DDA
:1009A0009C8D2DEC3CEC4CE255E40E946514DC017E
:1009B000CB018D8B9E8BAF8BB88F6D897E898F8994
:1009C000988D20E030E040E85FE30E946B168823BA
:1009D0002CF481E090E09C8B8B8B3FC06D897E89ED
:1009E0008F89988D20E03FEF4FE757E40E940B1668
:1009F00018164CF5698D7A8D8B8D9C8D20E030E03A
:100A000040E251E40E946514DC01CB01BC01CD0140
:100A10000E948F12DC01CB019C8B8B8B0FC084E179
:100A200091E09A8B898B89899A890197F1F79A8B42
:100A3000898B8B899C8901979C8B8B8B8B899C895B
:100A4000009769F714C06D897E898F89988D0E94FF
:100A50008F12DC01CB019C8B8B8B8B899C89988BB3
:100A60008F878F8598890197F1F7988B8F87A8E2F8
:100A7000B0E0E8E2F0E080818E7F8C93A8E2B0E005
:100A8000E8E2F0E080818D7F8C93E8E2F0E080E2A4
:100A90008083A8E2B0E0E8E2F0E0808184608C939B
:100AA00080E090E0A0EAB0E48B879C87AD87BE87AA
:100AB0006B857C858D859E852DEC3CEC4CE255E468
:100AC0000E946514DC01CB018F839887A987BA87C0
:100AD0006F81788589859A8520E030E040E85FE382
:100AE0000E946B1688232CF481E090E09E838D8316
:100AF0003FC06F81788589859A8520E03FEF4FE779
:100B000057E40E940B1618164CF56B857C858D8575
:100B10009E8520E030E040E251E40E946514DC0153
:100B2000CB01BC01CD010E948F12DC01CB019E8361
:100B30008D830FC084E191E09C838B838B819C81AA
:100B40000197F1F79C838B838D819E8101979E8312
:100B50008D838D819E81009769F714C06F817885A0
:100B600089859A850E948F12DC01CB019E838D833B
:100B70008D819E819A83898389819A810197F1F77A
:100B80009A838983A8E2B0E0E8E2F0E080818B7F7D
:100B90008C93C059DF4F0FB6F894DEBF0FBECDBFA8
:100BA000CF91DF911F910F910895DF93CF93CDB730
:100BB000DEB72E970FB6F894DEBF0FBECDBF80E034
:100BC00090E0A0E8BFE38B879C87AD87BE876B85ED
:100BD0007C858D859E852DEC3CEC4CE255E40E9495
:100BE0006514DC01CB018F839887A987BA876F8151
:100BF000788589859A8520E030E040E85FE30E94AF
:100C00006B1688232CF481E090E09E838D833FC097
:100C10006F81788589859A8520E03FEF4FE757E41B
:100C20000E940B1618164CF56B857C858D859E856C
:100C300020E030E040E251E40E946514DC01CB0189
:100C4000BC01CD010E948F12DC01CB019E838D83FC
:100C50000FC084E191E09C838B838B819C81019701
:100C6000F1F79C838B838D819E8101979E838D8379
:100C70008D819E81009769F714C06F817885898581
:100C80009A850E948F12DC01CB019E838D838D811A
:100C90009E819A83898389819A810197F1F79A834A
:100CA000898388E20E94690681E00E94690686E0E5
:100CB0000E9469068EE00E94690680E80E9469062B
:100CC0002E960FB6F894DEBF0FBECDBFCF91DF9149
:100CD0000895DF93CF93CDB7DEB76E970FB6F89434
:100CE000DEBF0FBECDBF8E8F8E8D8D8F8D8D807FA1
:100CF0008D8FA8E2B0E0E8E2F0E080818F708C9305
:100D0000A8E2B0E0E8E2F0E090818D8D892B8C9331
:100D1000A8E2B0E0E8E2F0E080818E7F8C93A8E268
:100D2000B0E0E8E2F0E080818D7F8C93A8E2B0E053
:100D3000E8E2F0E0808184608C9380E090E0A0EABB
:100D4000B0E4898F9A8FAB8FBC8F698D7A8D8B8D34
:100D50009C8D2DEC3CEC4CE255E40E946514DC01CA
:100D6000CB018D8B9E8BAF8BB88F6D897E898F89E0
:100D7000988D20E030E040E85FE30E946B16882306
:100D80002CF481E090E09C8B8B8B3FC06D897E8939
:100D90008F89988D20E03FEF4FE757E40E940B16B4
:100DA00018164CF5698D7A8D8B8D9C8D20E030E086
:100DB00040E251E40E946514DC01CB01BC01CD018D
:100DC0000E948F12DC01CB019C8B8B8B0FC084E1C6
:100DD00091E09A8B898B89899A890197F1F79A8B8F
:100DE000898B8B899C8901979C8B8B8B8B899C89A8
:100DF000009769F714C06D897E898F89988D0E944C
:100E00008F12DC01CB019C8B8B8B8B899C89988BFF
:100E10008F878F8598890197F1F7988B8F87A8E244
:100E2000B0E0E8E2F0E080818B7F8C938E8D8F7054
:100E30008E8F8E8D8295807F8E8FA8E2B0E0E8E263
:100E4000F0E080818F708C93A8E2B0E0E8E2F0E0FF
:100E500090818E8D892B8C93A8E2B0E0E8E2F0E0DF
:100E600080818E7F8C93A8E2B0E0E8E2F0E08081A0
:100E70008D7F8C93A8E2B0E0E8E2F0E080818460AE
:100E80008C9380E090E0A0EAB0E48B879C87AD87EC
:100E9000BE876B857C858D859E852DEC3CEC4CE278
:100EA00055E40E946514DC01CB018F839887A987E4
:100EB000BA876F81788589859A8520E030E040E89F
:100EC0005FE30E946B1688232CF481E090E09E8300
:100ED0008D833FC06F81788589859A8520E03FEFBB
:100EE0004FE757E40E940B1618164CF56B857C856E
:100EF0008D859E8520E030E040E251E40E9465143B
:100F0000DC01CB01BC01CD010E948F12DC01CB01C1
:100F10009E838D830FC084E191E09C838B838B81C2
:100F20009C810197F1F79C838B838D819E81019732
:100F30009E838D838D819E81009769F714C06F8198
:100F4000788589859A850E948F12DC01CB019E836A
:100F50008D838D819E819A83898389819A8101976E
:100F6000F1F79A838983A8E2B0E0E8E2F0E08081BB
:100F70008B7F8C936E960FB6F894DEBF0FBECDBFFD
:100F8000CF91DF910895DF93CF93CDB7DEB76E9702
:100F90000FB6F894DEBF0FBECDBF8E8F8E8D8D8FB6
:100FA0008D8D807F8D8FA8E2B0E0E8E2F0E0808157
:100FB0008F708C93A8E2B0E0E8E2F0E090818D8D34
:100FC000892B8C93A8E2B0E0E8E2F0E080818160B8
:100FD0008C93A8E2B0E0E8E2F0E080818D7F8C9312
:100FE000A8E2B0E0E8E2F0E0808184608C9380E0E9
:100FF00090E0A0EAB0E4898F9A8FAB8FBC8F698DA7
:101000007A8D8B8D9C8D2DEC3CEC4CE255E40E944E
:101010006514DC01CB018D8B9E8BAF8BB88F6D89F6
:101020007E898F89988D20E030E040E85FE30E9460
:101030006B1688232CF481E090E09C8B8B8B3FC057
:101040006D897E898F89988D20E03FEF4FE757E4C7
:101050000E940B1618164CF5698D7A8D8B8D9C8D20
:1010600020E030E040E251E40E946514DC01CB0155
:10107000BC01CD010E948F12DC01CB019C8B8B8BBC
:101080000FC084E191E09A8B898B89899A890197B5
:10109000F1F79A8B898B8B899C8901979C8B8B8B21
:1010A0008B899C89009769F714C06D897E898F8927
:1010B000988D0E948F12DC01CB019C8B8B8B8B89CE
:1010C0009C89988B8F878F8598890197F1F7988BEA
:1010D0008F87A8E2B0E0E8E2F0E080818B7F8C931C
:1010E0008E8D8F708E8F8E8D8295807F8E8FA8E2F1
:1010F000B0E0E8E2F0E080818F708C93A8E2B0E08D
:10110000E8E2F0E090818E8D892B8C93A8E2B0E02C
:10111000E8E2F0E0808181608C93A8E2B0E0E8E250
:10112000F0E080818D7F8C93A8E2B0E0E8E2F0E00F
:10113000808184608C9380E090E0A0EAB0E48B87AB
:101140009C87AD87BE876B857C858D859E852DECC4
:101150003CEC4CE255E40E946514DC01CB018F832A
:101160009887A987BA876F81788589859A8520E0D5
:1011700030E040E85FE30E946B1688232CF481E0A6
:1011800090E09E838D833FC06F81788589859A85A5
:1011900020E03FEF4FE757E40E940B1618164CF57E
:1011A0006B857C858D859E8520E030E040E251E4B2
:1011B0000E946514DC01CB01BC01CD010E948F129D
:1011C000DC01CB019E838D830FC084E191E09C8381
:1011D0008B838B819C810197F1F79C838B838D811D
:1011E0009E8101979E838D838D819E81009769F7F3
:1011F00014C06F81788589859A850E948F12DC01E1
:10120000CB019E838D838D819E819A838983898181
:101210009A810197F1F79A838983A8E2B0E0E8E226
:10122000F0E080818B7F8C936E960FB6F894DEBFD2
:101230000FBECDBFCF91DF910895DF93CF93CDB790
:10124000DEB780E80E946906CF91DF910895DF93B1
:10125000CF930F920F92CDB7DEB79A8389830AC0DE
:10126000E981FA8180810E94C30789819A81019670
:101270009A838983E981FA818081882389F70F9095
:101280000F90CF91DF910895DF93CF9300D00F920D
:10129000CDB7DEB789836A838981282F30E03C830C
:1012A0002B838B819C8182309105D9F02B813C81ED
:1012B0002330310534F48B819C818130910561F0BC
:1012C0001EC02B813C812330310581F08B819C81B4
:1012D0008430910581F013C08A8181580E9469068B
:1012E0000EC08A8181540E94690609C08A818D5688
:1012F0000E94690604C08A818D520E9469060F907F
:101300000F900F900F90CF91DF910895DF93CF93BF
:10131000CDB7DEB727970FB6F894DEBF0FBECDBFAF
:101320008A836B835D834C833F832E8319828A81FA
:10133000882319F08B81882319F40E941D0904C0A9
:101340008A816B810E9444098E819F81853091053D
:1013500019F089818130A9F48C819D8120E137E2E7
:10136000B9010E94BB19CB01C09690931B038093D7
:101370001A0380911A0390911B030E94C30781E016
:1013800089838E819F818430910519F08981813014
:1013900011F58C819D8128EE33E0B9010E94BB19C3
:1013A000CB0190931D0380931C0380911C039091AB
:1013B0001D032AE030E0B9010E94BB19C09690934A
:1013C00027038093260380912603909127030E9490
:1013D000C30781E089838E819F818330910519F055
:1013E0008981813011F58C819D8124E630E0B9013D
:1013F0000E94BB19CB0190931D0380931C03809125
:101400001C0390911D032AE030E0B9010E94BB1932
:10141000C09690932303809322038091220390919E
:1014200023030E94C30781E089838E819F818230DC
:10143000910519F08981813011F58C819D812AE017
:1014400030E0B9010E94BB19CB0190931D0380933A
:101450001C0380911C0390911D032AE030E0B90128
:101460000E94BB19C0969093210380932003809122
:101470002003909121030E94C30781E089838E811C
:101480009F818130910519F08981813091F48C819F
:101490009D812AE030E0B9010E94BB19C09690936B
:1014A00025038093240380912403909125030E94B7
:1014B000C3078E819F81863091051CF085E40E94D0
:1014C000C30727960FB6F894DEBF0FBECDBFCF91EE
:1014D000DF9108951F920F920FB60F9211248F93F0
:1014E0009F93DF93CF93CDB7DEB780910E0390919A
:1014F0000F03019690930F0380930E03CF91DF911A
:101500009F918F910F900FBE0F901F9018951F9273
:101510000F920FB60F9211248F939F93DF93CF9367
:10152000CDB7DEB780910C0390910D030196909397
:101530000D0380930C03CF91DF919F918F910F90BA
:101540000FBE0F901F901895DF93CF93CDB7DEB7E6
:10155000E1E2F0E08FE08083E2E2F0E01082EAE096
:10156000F1E088E18083EBE0F1E088E18083F894AA
:10157000AAE6B0E0EAE6F0E080818A608C93ADE311
:10158000B0E0EDE3F0E0808180638C937894EDE24D
:10159000F0E08FEC8083EEE2F0E0108210920D0319
:1015A00010920C0310920F0310920E03CF91DF9153
:1015B0000895DF93CF93CDB7DEB7E2E2F0E086E0A7
:1015C0008083CF91DF910895DF93CF93CDB7DEB7BE
:1015D000E2E2F0E089E08083CF91DF910895DF932C
:1015E000CF93CDB7DEB7E2E2F0E085E08083CF9124
:1015F000DF910895DF93CF93CDB7DEB7E2E2F0E05D
:101600008AE08083CF91DF910895DF93CF93CDB7A8
:10161000DEB7E2E2F0E084E08083CF91DF910895CD
:10162000DF93CF93CDB7DEB7E2E2F0E082E08083D4
:10163000CF91DF910895DF93CF93CDB7DEB7E2E28C
:10164000F0E01082CF91DF910895DF93CF9300D027
:101650000F92CDB7DEB79C838B831A8219828B8160
:101660009C8125E030E0B9010E94CF19CB019A831B
:10167000898302C00E94D90A20910E0330910F0382
:1016800089819A8128173907A8F30E941B0B0F90B4
:101690000F900F900F90CF91DF910895DF93CF932C
:1016A00000D00F92CDB7DEB79C838B831A8219824C
:1016B0008B819C8125E030E0B9010E94CF19CB01DC
:1016C0009A83898302C00E94E40A20910E0330911C
:1016D0000F0389819A8128173907A8F30E941B0BF1
:1016E0000F900F900F900F90CF91DF910895DF939F
:1016F000CF9300D000D0CDB7DEB79C838B831A8206
:1017000019828B819C819E838D838D819E819923FB
:101710002CF48D819E8101969E838D838D819E8187
:10172000959587959A83898302C00E94100B20911A
:101730000E0330910F0389819A8128173907A8F386
:101740000E941B0B26960FB6F894DEBF0FBECDBFCE
:10175000CF91DF910895DF93CF9300D000D0CDB724
:10176000DEB79C838B831A8219828B819C819E8336
:101770008D838D819E8199232CF48D819E8101968C
:101780009E838D838D819E81959587959A8389838C
:1017900002C00E94050B20910C0330910D0389813A
:1017A0009A8128173907A8F30E941B0B26960FB6BB
:1017B000F894DEBF0FBECDBFCF91DF910895DF93C8
:1017C000CF93CDB7DEB72A970FB6F894DEBF0FBE22
:1017D000CDBF9E838D831C821B821A8219828D81CC
:1017E0009E8198878F838F81988599232CF48F8190
:1017F0009885039698878F838F819885959587958F
:10180000959587959C838B838D819E819A87898707
:1018100089859A8599232CF489859A8503969A87D8
:10182000898789859A8595958795959587959A83D2
:10183000898302C00E94FA0A20910C0330910D03A3
:101840008B819C812817390748F420910E03309131
:101850000F0389819A812817390760F30E941B0BB7
:101860002A960FB6F894DEBF0FBECDBFCF91DF91A1
:101870000895DF93CF93CDB7DEB72A970FB6F894CC
:10188000DEBF0FBECDBF9E838D831C821B821A825A
:1018900019828D819E8198878F838F819885992366
:1018A0002CF48F819885039698878F838F819885F4
:1018B00095958795959587959C838B838D819E8142
:1018C0009A87898789859A8599232CF489859A85B1
:1018D00003969A87898789859A85959587959595A1
:1018E00087959A83898302C00E94EF0A20910C0396
:1018F00030910D038B819C812817390748F4209182
:101900000E0330910F0389819A812817390760F3FC
:101910000E941B0B2A960FB6F894DEBF0FBECDBFF8
:10192000CF91DF910895DF93CF93CDB7DEB7E0E39A
:10193000F0E01082E1E3F0E01082E7E0F1E01082F5
:10194000E8E0F1E01082CF91DF910895DF93CF932B
:10195000CDB7DEB7EAE7F0E01082EBE7F0E0108207
:10196000ECE7F0E080E28083E0E5F0E080E880836F
:10197000EAE7F0E086E88083CF91DF910895DF9376
:10198000CF930F920F92CDB7DEB78A838A818830CA
:1019900020F0EBE7F0E088E080838A8187708A831B
:1019A000ECE7F0E08A8180628083AAE7B0E0EAE7B2
:1019B000F0E0808180648C93EAE7F0E08081882FFA
:1019C00090E0807190700097B9F3E9E7F0E08081D2
:1019D0008983AAE7B0E0EAE7F0E0808180618C9338
:1019E000EBE7F0E0108289810F900F90CF91DF91AB
:1019F0000895DF93CF93CDB7DEB727970FB6F8944E
:101A0000DEBF0FBECDBF8F838F81882F90E0A0E017
:101A1000B0E0BC01CD010E944D17DC01CB01BC013F
:101A2000CD012FEE39EC43E95FE30E94191ADC0186
:101A3000CB019C01AD0160E070E080E89FE30E9473
:101A40005F15DC01CB01BC01CD012AE939EF4EE283
:101A500055E40E946514DC01CB01BC01CD0120E0FE
:101A600030E040E251E40E946514DC01CB01BC018E
:101A7000CD010E94F916DC01CB01AA2797FDA095A4
:101A8000BA2FBC01CD010E949B16DC01CB018B83D8
:101A90009C83AD83BE836B817C818D819E810E94FE
:101AA000F916DC01CB019A83898389819A8123E02D
:101AB0008132920720F080E293E09A8389838981C2
:101AC0009A8127960FB6F894DEBF0FBECDBFCF9197
:101AD000DF910895DF93CF93CDB7DEB7A7E2B0E0F3
:101AE000E7E2F0E08081876F8C93A8E2B0E0E8E263
:101AF000F0E0808180788C93CF91DF910895DF931F
:101B0000CF93CDB7DEB7E1ECF0E01082E0ECF0E08F
:101B10001082E2ECF0E086E08083E4ECF0E087E421
:101B20008083E5ECF0E01082E1ECF0E088E980836E
:101B3000CF91DF910895DF93CF93CDB7DEB7A4E2C5
:101B4000B0E0E4E2F0E0808180628C93A5E2B0E056
:101B5000E5E2F0E0808180628C93CF91DF9108957F
:101B6000DF93CF93CDB7DEB70E949B0D0E94930CFD
:101B70000E946A0D0E94A40ACF91DF910895DF931D
:101B8000CF93CDB7DEB7E1E8F0E01082E5E8F0E012
:101B90008CEF8083E4E8F0E081E08083E9E8F0E026
:101BA00083E08083E8E8F0E08FEF8083EBE8F0E00B
:101BB00083E08083EAE8F0E08FEF8083EDE8F0E0F7
:101BC00083E08083ECE8F0E08FEF8083E7E8F0E0EB
:101BD00083E08083E6E8F0E08FEF8083E0E8F0E0E8
:101BE0008BEA8083E2E8F0E01082E1E8F0E08CE04C
:101BF0008083CF91DF910895DF93CF93CDB7DEB788
:101C0000F8940E94B00D0E94BF0D0E94A60C0E9485
:101C10007F0D7894CF91DF9108950F931F93DF93F9
:101C2000CF9300D00F920F92CDB7DEB78D8380E0B7
:101C300090E0A0E0B0E089839A83AB83BC838D8180
:101C4000882F90E0A0E0B0E0BC01CD010E944D17CC
:101C5000DC01CB01BC01CD0120E030E040E150E4EB
:101C60000E945F15DC01CB01BC01CD0120E030E01A
:101C700048EA51E40E943814DC01CB0189839A833D
:101C8000AB83BC83E9E8F0E0108208E810E06981EA
:101C90007A818B819C810E948F12DC01CB01F8013B
:101CA00080830F900F900F900F900F90CF91DF9146
:101CB0001F910F910895DF93CF93CDB7DEB7E9E879
:101CC000F0E083E08083E8E8F0E08FEF8083CF915D
:101CD000DF910895DF93CF93CDB7DEB762970FB64C
:101CE000F894DEBF0FBECDBF9A8B898B188A1F86F2
:101CF0007BC0E6ECF0E08989808380E090E0A0E2A0
:101D0000B1E48B879C87AD87BE876B857C858D858D
:101D10009E852DEC3CEC4CE255E40E946514DC0100
:101D2000CB018F839887A987BA876F81788589854A
:101D30009A8520E030E040E85FE30E946B1688233C
:101D40002CF481E090E09E838D833FC06F81788585
:101D500089859A8520E03FEF4FE757E40E940B16F4
:101D600018164CF56B857C858D859E8520E030E0CE
:101D700040E251E40E946514DC01CB01BC01CD01BD
:101D80000E948F12DC01CB019E838D830FC084E102
:101D900091E09C838B838B819C810197F1F79C83DD
:101DA0008B838D819E8101979E838D838D819E8102
:101DB000009769F714C06F81788589859A850E949C
:101DC0008F12DC01CB019E838D838D819E819A834E
:101DD000898389819A810197F1F79A8389838F8515
:101DE00098890196988B8F878F8598898233910582
:101DF0000CF47FCF62960FB6F894DEBF0FBECDBF56
:101E0000CF91DF9108951F920F920FB60F9200901D
:101E10005B000F9211242F933F934F935F936F9327
:101E20007F938F939F93AF93BF93EF93FF93DF9332
:101E3000CF930F92CDB7DEB78CE78983E6ECF0E065
:101E400080818983809102028E3661F48EE78093CF
:101E500002028981882F90E0909301028093000212
:101E60008CE789838981833729F4109211031092BA
:101E7000100397C18981823739F481E090E0909313
:101E80001103809310038DC18981813639F481E07B
:101E900090E0909315038093140383C18981843665
:101EA00039F481E090E0909313038093120379C199
:101EB0008981813729F4109217031092160371C19A
:101EC0008981863629F40E94A40A0E94D90A69C130
:101ED0008981883629F40E94A40A0E941B0B61C1E3
:101EE00089818E3651F48EE68093020288EE93E06B
:101EF000909301028093000254C189818037C1F41C
:101F0000809100029091010223E08032920708F054
:101F100048C180910002909101029093190380932F
:101F2000180388EE93E0909301028093000239C178
:101F300089818D36B1F4809100029091010223E0F5
:101F40008032920708F02DC1809100029091010229
:101F50000E940D0E88EE93E09093010280930002A0
:101F600020C189818133C1F48091000290910102E6
:101F700023E08032920708F014C10E94A40A8091E5
:101F80000002909101020E94AB0B88EE93E09093C7
:101F900001028093000205C18981823311F580918D
:101FA00000029091010223E08032920708F0F9C00C
:101FB0000E94A40A80910002909101029C01220FCC
:101FC000331FC901880F991F880F991F820F931F14
:101FD0000E944E0B88EE93E09093010280930002E2
:101FE000E0C089818333C1F48091000290910102A5
:101FF00023E08032920708F0D4C00E94A40A8091A6
:102000000002909101020E94770B88EE93E090937A
:10201000010280930002C5C08981843341F580911B
:1020200000029091010223E08032920708F0B9C0CB
:102030000E94A40A8AE590E00E94DF0B0E94A40A95
:1020400080910002909101029C01220F331FC9016F
:10205000880F991F880F991F820F931F0E94250BCD
:1020600088EE93E090930102809300029AC08981E8
:102070008533A1F4809100029091010223E0803227
:10208000920708F08EC00E94A40A0E941B0B88EEE3
:1020900093E0909301028093000283C0898186338C
:1020A00041F5809100029091010223E08032920775
:1020B00008F077C00E94A40A8AE590E00E94DF0B36
:1020C0000E94A40A80910002909101029C01220FBB
:1020D000331FC901880F991F880F991F820F931F03
:1020E0000E94250B88EE93E09093010280930002FA
:1020F00058C089818733C1F4809100029091010218
:1021000023E08032920708F04CC00E94A40A80911C
:102110000002909101020E94390C88EE93E09093A6
:102120000102809300023DC08981883309F58091C6
:1021300000029091010223E08032920790F50E9404
:10214000A40A80910002909101029C01220F331F8A
:10215000C901880F991F880F991F820F931F0E9432
:10216000250B88EE93E0909301028093000219C042
:1021700089818933B1F4809100029091010223E0BA
:102180008032920770F40E94A40A8091000290911C
:1021900001020E94DF0B88EE93E09093010280938E
:1021A00000020F90CF91DF91FF91EF91BF91AF911E
:1021B0009F918F917F916F915F914F913F912F915F
:1021C0000F9000925B000F900FBE0F901F9018951C
:1021D000DF93CF93CDB7DEB7A4970FB6F894DEBFE9
:1021E0000FBECDBF1AA218A21F8E8091100390912E
:1021F00011038130910509F05DC180911603909122
:1022000017038AA3E1C08AA10E940D0E80E090E02E
:10221000A6E9B3E4898F9A8FAB8FBC8F698D7A8DD5
:102220008B8D9C8D2DEC3CEC4CE255E40E946514AA
:10223000DC01CB018D8B9E8BAF8BB88F6D897E8936
:102240008F89988D20E030E040E85FE30E946B16B4
:1022500088232CF481E090E09C8B8B8B3FC06D89B0
:102260007E898F89988D20E03FEF4FE757E40E94E9
:102270000B1618164CF5698D7A8D8B8D9C8D20E090
:1022800030E040E251E40E946514DC01CB01BC0166
:10229000CD010E948F12DC01CB019C8B8B8B0FC078
:1022A00084E191E09A8B898B89899A890197F1F76A
:1022B0009A8B898B8B899C8901979C8B8B8B8B89C3
:1022C0009C89009769F714C06D897E898F89988DE4
:1022D0000E948F12DC01CB019C8B8B8B8B899C899C
:1022E000988B8F878F8598890197F1F7988B8F87C7
:1022F0008BE00E94BF0C89A389A10E94F90C98A3CE
:102300008F8F2F8D38A182E061E0A90123E030E0BA
:102310000E9486098AA1282F30E082E066E0A901A8
:1023200023E030E00E948609809110039091110310
:10233000009709F03FC08AA1882F90E0909317037F
:10234000809316038F8D98A12AE030E0B9010E9496
:10235000BB19CB019E8F8D8F8F8D98A12D8D3E8DBA
:10236000B9010E94BB198630910528F08D8D9E8D94
:1023700001969E8F8D8F8091120390911303009789
:10238000D1F38D8D9E8D0E946A0E109213031092D0
:10239000120380911403909115030097D1F38AA141
:1023A000882F90E00E946A0E109215031092140379
:1023B00084EB8AA38AA1833B21F410921703109225
:1023C00016038AA18F5F8AA38AA1843B08F41BCFDE
:1023D00080E090E0AAEFB3E48B879C87AD87BE874F
:1023E0006B857C858D859E852DEC3CEC4CE255E41F
:1023F0000E946514DC01CB018F839887A987BA8777
:102400006F81788589859A8520E030E040E85FE338
:102410000E946B1688232CF481E090E09E838D83CC
:102420003FC06F81788589859A8520E03FEF4FE72F
:1024300057E40E940B1618164CF56B857C858D852C
:102440009E8520E030E040E251E40E946514DC010A
:10245000CB01BC01CD010E948F12DC01CB019E8318
:102460008D830FC084E191E09C838B838B819C8161
:102470000197F1F79C838B838D819E8101979E83C9
:102480008D838D819E81009769F714C06F81788557
:1024900089859A850E948F12DC01CB019E838D83F2
:1024A0008D819E819A83898389819A810197F1F731
:1024B0009A838983A4960FB6F894DEBF0FBECDBF72
:1024C000CF91DF910895DF93CF9300D0CDB7DEB7E2
:1024D0001A8219820E94FC0D0E94D6000E94D50526
:1024E0008CE00E9469068091180390911903813055
:1024F000910511F40E94E8108BE00E94BF0C8B83C1
:102500008B810E94F90C9A83898329813A8182E028
:1025100061E0A90123E030E00E948609E4CFEF9258
:10252000FF920F931F937B018C0120E030E040E08D
:102530005FE40E943B1688238CF0C801B70120E0BD
:1025400030E040E05FE40E9407140E94F9169B010E
:10255000AC01205030404040504806C0C801B7018F
:102560000E94F9169B01AC01B901CA011F910F919C
:10257000FF90EF900895A0E0B0E0E1ECF2E10C9460
:10258000E219DC012B01FA019C91923008F439C167
:10259000EB018881823008F433C1943069F48430CF
:1025A00009F02FC111969C9111978981981709F410
:1025B00028C1A3E0B2E025C1843009F421C18230F2
:1025C000A9F4923009F01DC19A01AD0188E0EA0139
:1025D0000990AE01E90109929E018150C1F7E20123
:1025E000898111969C918923818308C1923009F4D5
:1025F00007C112962D903C901397EB018A819B8125
:102600001496AD90BD90CD90DC901797EC80FD8036
:102610000E811F819101281B390BB90137FF04C0BE
:1026200066277727621B730B603271050CF061C05F
:10263000121613066CF537014801062E04C0969455
:102640008794779467940A94D2F721E030E040E0D1
:1026500050E004C0220F331F441F551F6A95D2F764
:1026600021503040404050402E213F2140235123F3
:10267000211531054105510521F021E030E040E010
:1026800050E079018A01E628F728082919293CC079
:10269000232BD1F1260E371E35014601062E04C02C
:1026A00096948794779467940A94D2F721E030E067
:1026B00040E050E004C0220F331F441F551F6A95AD
:1026C000D2F721503040404050402A213B214C213C
:1026D0005D21211531054105510521F021E030E052
:1026E00040E050E059016A01A628B728C828D92837
:1026F0000BC0821593052CF01C01AA24BB24650194
:1027000003C0EE24FF24870111969C91D2011196FB
:102710008C91981709F445C0992339F0A8019701C5
:102720002A193B094C095D0906C0A60195012E191D
:102730003F09400B510B57FD08C0118233822282A2
:1027400024833583468357831DC081E08183338290
:10275000228288279927DC01821B930BA40BB50BDF
:1027600084839583A683B7830DC0220F331F441F34
:10277000551F248335834683578382819381019734
:10278000938382832481358146815781DA01C9018F
:102790000197A109B1098F5F9F4FAF4FBF4328F346
:1027A0000BC0918333822282EA0CFB1C0C1D1D1D81
:1027B000E482F5820683178383E080832481358158
:1027C0004681578157FF1AC0C901AA2797FDA095D6
:1027D000BA2F81709070A070B0705695479537955C
:1027E0002795822B932BA42BB52B84839583A683CB
:1027F000B78382819381019693838283DF0101C035
:10280000D201CD01CDB7DEB7E2E10C94FE19A0E212
:10281000B0E0EDE0F4E10C94EE1969837A838B83E8
:102820009C832D833E834F835887E9E0EE2EF12C65
:10283000EC0EFD1ECE010196B7010E94EA188E0132
:102840000F5E1F4FCE010596B8010E94EA188A89D3
:1028500091E089278A8BC701B801AE01475E5F4FBF
:102860000E94BB120E941518A096E6E00C940A1A6A
:10287000A0E2B0E0EEE3F4E10C94EE1969837A8310
:102880008B839C832D833E834F835887F9E0EF2E03
:10289000F12CEC0EFD1ECE010196B7010E94EA1844
:1028A0008E010F5E1F4FCE010596B8010E94EA18F7
:1028B000C701B801AE01475E5F4F0E94BB120E9484
:1028C0001518A096E6E00C940A1AA0E2B0E0EBE638
:1028D000F4E10C94E21969837A838B839C832D83C2
:1028E0003E834F835887CE010196BE01675F7F4FBD
:1028F0000E94EA18CE010596BE016F5E7F4F0E94CE
:10290000EA189985923088F089898230C8F094302D
:1029100019F4823051F404C0843029F4923081F4E7
:1029200083E092E0C6C0923049F420E09A858A891B
:10293000981321E02A87CE010996BBC0823049F462
:1029400020E09A858A89981321E02A8BCE0141964E
:10295000B0C02D843E844F8458886D887E888F88CF
:10296000988CEE24FF248701AA24BB24650140E053
:1029700050E060E070E0E0E0F0E0C1018170907054
:10298000892BE9F0E60CF71C081D191D9A01AB0113
:102990002A0D3B1D4C1D5D1D80E090E0A0E0B0E0E5
:1029A000E614F7040805190520F481E090E0A0E0A2
:1029B000B0E0BA01A901480F591F6A1F7B1FAA0C7A
:1029C000BB1CCC1CDD1C97FE08C081E090E0A0E0A1
:1029D000B0E0A82AB92ACA2ADB2A3196E032F105EA
:1029E00049F0660C771C881C991C569447943794C0
:1029F0002794C3CFFA85EA892B893C898B859C85EE
:102A0000280F391F2E5F3F4F17C0CA018170907089
:102A1000892B61F016950795F794E79480E090E094
:102A2000A0E0B0E8E82AF92A0A2B1B2B76956795D7
:102A3000579547952F5F3F4F77FDE7CF0CC0440F69
:102A4000551F661F771F17FD4160EE0CFF1C001F0E
:102A5000111F21503040403090E0590790E0690745
:102A600090E4790760F32B8F3C8FDB01CA018F77ED
:102A70009070A070B07080349105A105B10561F42B
:102A800047FD0AC0E114F1040105110529F0405C7D
:102A90005F4F6F4F7F4F40781A8EFE1711F081E025
:102AA0008A8F4D8F5E8F6F8F78A383E0898FCE01E1
:102AB00049960E941518A096E2E10C94FE19A8E12F
:102AC000B0E0E5E6F5E10C94EA1969837A838B833B
:102AD0009C832D833E834F835887B9E0EB2EF12CE6
:102AE000EC0EFD1ECE010196B7010E94EA188E0180
:102AF0000F5E1F4FCE010596B8010E94EA18298586
:102B0000223008F47EC03989323010F4B8017CC01C
:102B10008A859A8989278A87243011F0223031F4F6
:102B2000231709F06EC063E072E06EC0343039F4F0
:102B30001D861E861F86188A1C861B8604C032309E
:102B400021F484E08987B7015FC02B853C858B89A0
:102B50009C89281B390B3C872B87ED84FE840F85CD
:102B60001889AD88BE88CF88D88CEA14FB040C0580
:102B70001D0540F4EE0CFF1C001F111F21503040BA
:102B80003C872B8720E030E040E050E080E090E0A0
:102B9000A0E0B0E460E070E0EA14FB040C051D0561
:102BA00040F0282B392B4A2B5B2BEA18FB080C0929
:102BB0001D09B695A79597958795EE0CFF1C001FEC
:102BC000111F6F5F7F4F6F31710531F7DA01C90156
:102BD0008F779070A070B07080349105A105B10519
:102BE00061F427FD0AC0E114F1040105110529F083
:102BF000205C3F4F4F4F5F4F20782D873E874F8798
:102C0000588BBE01675F7F4FCB010E9415186896F5
:102C1000EAE00C94061AA8E1B0E0E1E1F6E10C94D8
:102C2000EE1969837A838B839C832D833E834F8344
:102C3000588789E0E82EF12CEC0EFD1ECE0101969E
:102C4000B7010E94EA188E010F5E1F4FCE01059654
:102C5000B8010E94EA188985823040F08989823063
:102C600028F0C701B8010E94621901C08FEF689671
:102C7000E6E00C940A1AA8E1B0E0E1E4F6E10C9475
:102C8000EE1969837A838B839C832D833E834F83E4
:102C9000588789E0E82EF12CEC0EFD1ECE0101963E
:102CA000B7010E94EA188E010F5E1F4FCE010596F4
:102CB000B8010E94EA188985823040F08989823003
:102CC00028F0C701B8010E94621901C08FEF689611
:102CD000E6E00C940A1AA8E1B0E0E1E7F6E10C9412
:102CE000EE1969837A838B839C832D833E834F8384
:102CF000588789E0E82EF12CEC0EFD1ECE010196DE
:102D0000B7010E94EA188E010F5E1F4FCE01059693
:102D1000B8010E94EA188985823040F089898230A2
:102D200028F0C701B8010E94621901C081E06896CD
:102D3000E6E00C940A1AA8E0B0E0E1EAF6E10C94AF
:102D4000EB199B01AC0183E08983DA01C901882773
:102D5000B7FD83959927AA27BB27B82E21153105E2
:102D60004105510519F482E089833AC08823A9F00E
:102D7000203080E0380780E0480780E8580729F4D1
:102D800060E070E080E09FEC30C0EE24FF2487011B
:102D9000E21AF30A040B150B02C079018A018EE1D5
:102DA000C82ED12CDC82CB82ED82FE820F83188765
:102DB000C801B7010E94C61701971816190684F4B6
:102DC000082E04C0EE0CFF1C001F111F0A94D2F73E
:102DD000ED82FE820F831887C81AD90ADC82CB8263
:102DE000BA82CE0101960E9415182896E9E00C944B
:102DF000071AACE0B0E0EFEFF6E10C94F21969834A
:102E00007A838B839C83CE010196BE016B5F7F4FDB
:102E10000E94EA188D81823061F1823050F1843055
:102E200021F48E81882351F12EC02F81388537FD02
:102E300020C06E812F3131051CF06623F9F023C0CC
:102E40008EE190E0821B930B29853A854B855C854A
:102E500004C056954795379527958A95D2F76623EE
:102E6000B1F050954095309521953F4F4F4F5F4FB2
:102E70000EC020E030E040E050E009C02FEF3FEF0F
:102E80004FEF5FE704C020E030E040E050E8B901D8
:102E9000CA012C96E2E00C940E1AA8E0B0E0E3E53B
:102EA000F7E10C94EA197B018C016115710581052C
:102EB000910519F482E0898360C083E089838EE103
:102EC000C82ED12CDC82CB82ED82FE820F83188744
:102ED000C801B7010E94C617FC013197F7FF3BC03C
:102EE000222733272E1B3F0B57016801022E04C0F7
:102EF000D694C794B794A7940A94D2F740E050E0D0
:102F000060E070E081E090E0A0E0B0E004C0880FF5
:102F1000991FAA1FBB1F2A95D2F70197A109B109D2
:102F20008E219F21A023B1230097A105B10521F097
:102F300041E050E060E070E04A295B296C297D297E
:102F40004D835E836F8378878EE190E08E1B9F0BAD
:102F50009C838B8312C0309781F00E2E04C0EE0C40
:102F6000FF1C001F111F0A94D2F7ED82FE820F830F
:102F70001887CE1ADF0ADC82CB821A82CE01019634
:102F80000E9415182896EAE00C94061AEF92FF9218
:102F90000F931F937B018C0180E0E81680E0F80618
:102FA00081E0080780E0180788F48FEFE816F10445
:102FB0000105110531F028F088E090E0A0E0B0E0D4
:102FC00017C080E090E0A0E0B0E012C080E0E8161A
:102FD00080E0F80680E0080781E0180728F088E123
:102FE00090E0A0E0B0E004C080E190E0A0E0B0E0BC
:102FF00020E230E040E050E0281B390B4A0B5B0B2D
:1030000004C016950795F794E7948A95D2F7F701CF
:10301000E55FFD4F8081281B310941095109C90134
:103020001F910F91FF90EF900895DF92EF92FF9222
:103030000F931F93FC01E480F58006811781D180F6
:103040008081823048F480E090E0A0E1B0E0E82A9E
:10305000F92A0A2B1B2BA5C0843009F49FC08230AB
:1030600021F4EE24FF24870105C0E114F1040105D9
:10307000110519F4E0E0F0E096C0628173819FEFE2
:10308000623879070CF05BC022E83FEF261B370B54
:103090002A3131052CF020E030E040E050E02AC039
:1030A000B801A701022E04C07695679557954795FC
:1030B0000A94D2F781E090E0A0E0B0E004C0880F6D
:1030C000991FAA1FBB1F2A95D2F70197A109B10921
:1030D0008E219F21A023B1230097A105B10521F0E6
:1030E00081E090E0A0E0B0E09A01AB01282B392B01
:1030F0004A2B5B2BDA01C9018F779070A070B070FA
:1031000080349105A105B10539F427FF09C0205C81
:103110003F4F4F4F5F4F04C0215C3F4F4F4F5F4FBA
:10312000E0E0F0E02030A0E03A07A0E04A07A0E4A9
:103130005A0710F0E1E0F0E079018A0127C0603819
:10314000710564F5FB01E158FF4FD801C7018F7786
:103150009070A070B07080349105A105B10539F46C
:10316000E7FE0DC080E490E0A0E0B0E004C08FE393
:1031700090E0A0E0B0E0E80EF91E0A1F1B1F17FF49
:1031800005C016950795F794E794319687E0169554
:103190000795F794E7948A95D1F705C0EE24FF24AC
:1031A0008701EFEFF0E06E2F679566276795902F08
:1031B0009F77D794DD24D7948E2F8695492F462B61
:1031C000582F5D29B701CA011F910F91FF90EF9011
:1031D000DF900895FC01DB01408151812281622F43
:1031E0006F7770E0221F2227221F9381892F880F7B
:1031F000822B282F30E0991F9927991F11969C93B5
:10320000119721153105A9F5411551056105710584
:1032100011F482E037C082E89FEF13969C938E935F
:1032200012979A01AB0167E0220F331F441F551F0D
:103230006A95D1F783E08C930DC0220F331F441F92
:10324000551F12968D919C911397019713969C93FD
:103250008E931297203080E0380780E0480780E4A2
:10326000580758F314962D933D934D935C931797FD
:1032700008952F3F310579F4411551056105710518
:1032800019F484E08C93089564FF03C081E08C936B
:1032900012C01C9210C02F57304013963C932E93AF
:1032A000129783E08C9387E0440F551F661F771FAA
:1032B0008A95D1F7706414964D935D936D937C93CA
:1032C000179708951F93DC01FB019C91923008F43D
:1032D00047C08081823008F443C0943051F4119685
:1032E0001C91843099F58181682F70E0611B710910
:1032F0003FC0843021F0923031F48230B9F18181C5
:10330000882389F12DC011961C9111978230F1F01C
:1033100081811817D9F412962D913C9113978281CF
:1033200093818217930794F028173907BCF01496FD
:103330008D919D910D90BC91A02D24813581468168
:103340005781281739074A075B0718F4112341F002
:103350000AC082179307A407B50740F4112319F098
:1033600061E070E005C06FEF7FEF02C060E070E0E9
:10337000CB011F910895AA1BBB1B51E107C0AA1FD7
:10338000BB1FA617B70710F0A61BB70B881F991F06
:103390005A95A9F780959095BC01CD01089597FBAA
:1033A000092E07260AD077FD04D0E5DF06D00020DD
:1033B0001AF4709561957F4F0895F6F79095819571
:1033C0009F4F08952F923F924F925F926F927F92FC
:1033D0008F929F92AF92BF92CF92DF92EF92FF9225
:1033E0000F931F93CF93DF93CDB7DEB7CA1BDB0BD1
:1033F0000FB6F894DEBF0FBECDBF19942A88398866
:1034000048885F846E847D848C849B84AA84B9847C
:10341000C884DF80EE80FD800C811B81AA81B98188
:10342000CE0FD11D0FB6F894DEBF0FBECDBFED019C
:103430000895FA01EE0FFF1F30962105310599F12D
:103440006115710561F48038BFE39B0749F1689409
:103450009038810561F08038BFEF9B0741F09923D8
:1034600042F5FF3FE1053105210511F1E89408948B
:10347000E795D901AA2329F4AB2FBE2FF85FD0F32B
:1034800010C0FF5F70F4A695E0F7F73950F019F01F
:10349000FF3A38F49F779F930CD00F9007FC905819
:1034A00008953EF049C060E070E080E89FE3089531
:1034B0004FE79F775F934F933F932F93D0D02F91F8
:1034C0003F914F915F9101DA05C019F40EF02EC0C3
:1034D0007DC032C061D0C8F39638C0F707F80F92AC
:1034E000E8942BE33AEA48EB5FE738D10F920F926A
:1034F0000F924DB75EB70F92F2D0E4EEF0E01FD01E
:103500004F915F91EF91FF91E595EE1FFF1F49F0FD
:10351000FE57E0684427EE0F441FFA95E1F7419506
:10352000550B64D00F9007FE58C0089597F99F6718
:1035300080E870E060E008959FEF80EC0895DF93ED
:10354000CF931F930F93FF92EF92DF927B018C0139
:10355000689405C0DA2EEF01FFD0FE01E894A59132
:103560002591359145915591AEF3EF0159D1FE0169
:103570009701A801DA9479F7DF90EF90FF900F910F
:103580001F91CF91DF91089557FD9058440F551F1B
:1035900059F05F3F71F04795880F97FB991F61F0D5
:1035A0009F3F79F087950895121613061406551F4C
:1035B000F2CF4695F1DF08C0161617061806991FB8
:1035C000F1CF86957105610508940895E894BB27AD
:1035D00066277727CB0197F908959B01AC0160E03E
:1035E00070E080E89FE36BCAA1CF6DC1D5DFE8F33F
:1035F0009923D9F3940F511DBBF39150504094F08F
:1036000059F0882332F0660F771F881F9150504081
:10361000C1F79E3F510544F7880F911D96958795F8
:1036200097F908955F3FACF0983E9CF0BB278695D4
:1036300077956795B79508F4B1609395C1F7BB0F7F
:1036400058F711F460FFE8CF6F5F7F4F8F4F9F4FA8
:10365000E3CFBDCF0EF037C16FCF689467CF9CDF4B
:10366000C8F39923D1F3C6F3DF93CF931F930F933E
:10367000FF92C92FDD2788232AF02197660F771F35
:10368000881FDAF720E030E040E85FEB9FE38839FD
:1036900020F0803E30F021968F77EAD8ECE0F1E020
:1036A00003C0E6D8E9E3F1E04ADF8B01BE01EC019B
:1036B000FB2E6F5771097595771F880B990B3BDBB4
:1036C00028E132E741E35FE347D0AF2D9801AE0137
:1036D000FF900F911F91CF91DF91A2D010C1FA01FD
:1036E000DC01AA0FBB1F9B01AC01BF5728F42227A6
:1036F0003327442750781FC0B75188F4AB2F0024DC
:10370000469537952795011CA395D2F3002069F0C3
:10371000220F331F441FB395DAF30DD078C8613000
:103720007105A0E88A07B94630F49B01AC01662711
:10373000772788279078309621F020833183428341
:1037400053830895CED028F0D3D018F0952309F0F4
:10375000EDCEF2CE11243BCF17DFA0F3959FD1F32E
:10376000950F50E0551F629FF001729FBB27F00D2F
:10377000B11D639FAA27F00DB11DAA1F649F662784
:10378000B00DA11D661F829F2227B00DA11D621FD3
:10379000739FB00DA11D621F839FA00D611D221F8D
:1037A000749F3327A00D611D231F849F600D211D71
:1037B000822F762F6A2F11249F5750408AF0E1F014
:1037C00088234AF0EE0FFF1FBB1F661F771F881F5D
:1037D00091505040A9F79E3F510570F0A7CEF7CE0B
:1037E0005F3FECF3983EDCF3869577956795B79548
:1037F000F795E7959F5FC1F7FE2B880F911D969572
:10380000879597F908956DD030F072D020F031F49B
:103810009F3F11F41EF490CE0EF4E095E7FB86CEA8
:10382000E92FB2DE80F3BA176207730784079507A2
:1038300018F071F49EF5CACE0EF4E0950B2EBA2F57
:10384000A02D0B01B90190010C01CA01A0011124A6
:10385000FF27591B99F0593F50F4503E68F11A1652
:10386000F040A22F232F342F4427585FF3CF4695E3
:1038700037952795A795F0405395C9F77EF41F1605
:10388000BA0B620B730B840BBAF09150A1F0FF0FCF
:10389000BB1F661F771F881FC2F70EC0BA0F621FBB
:1038A000731F841F48F4879577956795B795F795AB
:1038B0009E3F08F0B3CF9395880F08F09927EE0F3D
:1038C0009795879508959F3F31F0915020F4879503
:1038D00077956795B795880F911D9695879597F978
:1038E000089500240A941616170618060906089566
:1038F00000240A9412161306140605060895092ECC
:103900000394000C11F4882352F0BB0F40F4BF2B3A
:1039100011F460FF04C06F5F7F4F8F4F9F4F08957A
:04392000F894FFCF49
:10392400E8037E0000000000000000000102020322
:103934000303030404040404040404050505050541
:10394400050505050505050505050506060606061E
:103954000606060606060606060606060606060603
:1039640006060606060606060606060707070707EE
:1039740007070707070707070707070707070707D3
:1039840007070707070707070707070707070707C3
:1039940007070707070707070707070707070707B3
:1039A400070707070707070707070708080808089E
:1039B4000808080808080808080808080808080883
:1039C4000808080808080808080808080808080873
:1039D4000808080808080808080808080808080863
:1039E4000808080808080808080808080808080853
:1039F4000808080808080808080808080808080843
:103A04000808080808080808080808080808080832
:103A14000808080808080808080808080808080822
:0C3A24000808080808080808080808003E
:00000001FF
